{
  "contractName": "Marketplace",
  "abi": [
    {
      "inputs": [],
      "stateMutability": "nonpayable",
      "type": "constructor"
    },
    {
      "anonymous": false,
      "inputs": [
        {
          "indexed": false,
          "internalType": "address",
          "name": "nftContract",
          "type": "address"
        },
        {
          "indexed": false,
          "internalType": "uint256",
          "name": "tokenId",
          "type": "uint256"
        },
        {
          "indexed": false,
          "internalType": "address",
          "name": "seller",
          "type": "address"
        },
        {
          "indexed": false,
          "internalType": "address",
          "name": "owner",
          "type": "address"
        },
        {
          "indexed": false,
          "internalType": "uint256",
          "name": "price",
          "type": "uint256"
        },
        {
          "indexed": false,
          "internalType": "uint256",
          "name": "supply",
          "type": "uint256"
        },
        {
          "indexed": false,
          "internalType": "uint256",
          "name": "royalty",
          "type": "uint256"
        }
      ],
      "name": "NFTListed",
      "type": "event"
    },
    {
      "anonymous": false,
      "inputs": [
        {
          "indexed": false,
          "internalType": "address",
          "name": "nftContract",
          "type": "address"
        },
        {
          "indexed": false,
          "internalType": "uint256",
          "name": "tokenId",
          "type": "uint256"
        },
        {
          "indexed": false,
          "internalType": "address",
          "name": "seller",
          "type": "address"
        },
        {
          "indexed": false,
          "internalType": "address",
          "name": "owner",
          "type": "address"
        },
        {
          "indexed": false,
          "internalType": "uint256",
          "name": "price",
          "type": "uint256"
        },
        {
          "indexed": false,
          "internalType": "uint256",
          "name": "supply",
          "type": "uint256"
        },
        {
          "indexed": false,
          "internalType": "uint256",
          "name": "royalty",
          "type": "uint256"
        }
      ],
      "name": "NFTSold",
      "type": "event"
    },
    {
      "inputs": [],
      "name": "LISTING_FEE",
      "outputs": [
        {
          "internalType": "uint256",
          "name": "",
          "type": "uint256"
        }
      ],
      "stateMutability": "view",
      "type": "function",
      "constant": true
    },
    {
      "inputs": [
        {
          "internalType": "address",
          "name": "_nftContract",
          "type": "address"
        },
        {
          "internalType": "uint256",
          "name": "_tokenId",
          "type": "uint256"
        },
        {
          "internalType": "uint256",
          "name": "_price",
          "type": "uint256"
        },
        {
          "internalType": "uint256",
          "name": "_supply",
          "type": "uint256"
        },
        {
          "internalType": "uint256",
          "name": "_royalty",
          "type": "uint256"
        }
      ],
      "name": "listNft",
      "outputs": [],
      "stateMutability": "payable",
      "type": "function",
      "payable": true
    },
    {
      "inputs": [
        {
          "internalType": "address",
          "name": "_nftContract",
          "type": "address"
        },
        {
          "internalType": "uint256",
          "name": "_tokenId",
          "type": "uint256"
        },
        {
          "internalType": "uint256",
          "name": "_price",
          "type": "uint256"
        },
        {
          "internalType": "uint256",
          "name": "_royalty",
          "type": "uint256"
        }
      ],
      "name": "resellNft",
      "outputs": [],
      "stateMutability": "payable",
      "type": "function",
      "payable": true
    },
    {
      "inputs": [
        {
          "internalType": "address",
          "name": "_nftContract",
          "type": "address"
        },
        {
          "internalType": "uint256",
          "name": "_tokenId",
          "type": "uint256"
        }
      ],
      "name": "buyNft",
      "outputs": [],
      "stateMutability": "payable",
      "type": "function",
      "payable": true
    },
    {
      "inputs": [],
      "name": "getListingFee",
      "outputs": [
        {
          "internalType": "uint256",
          "name": "",
          "type": "uint256"
        }
      ],
      "stateMutability": "view",
      "type": "function",
      "constant": true
    },
    {
      "inputs": [],
      "name": "getListedNfts",
      "outputs": [
        {
          "components": [
            {
              "internalType": "address",
              "name": "nftContract",
              "type": "address"
            },
            {
              "internalType": "uint256",
              "name": "tokenId",
              "type": "uint256"
            },
            {
              "internalType": "address payable",
              "name": "seller",
              "type": "address"
            },
            {
              "internalType": "address payable",
              "name": "owner",
              "type": "address"
            },
            {
              "internalType": "uint256",
              "name": "price",
              "type": "uint256"
            },
            {
              "internalType": "uint256",
              "name": "supply",
              "type": "uint256"
            },
            {
              "internalType": "uint256",
              "name": "royalty",
              "type": "uint256"
            },
            {
              "internalType": "bool",
              "name": "listed",
              "type": "bool"
            }
          ],
          "internalType": "struct Marketplace.NFT[]",
          "name": "",
          "type": "tuple[]"
        }
      ],
      "stateMutability": "view",
      "type": "function",
      "constant": true
    },
    {
      "inputs": [],
      "name": "getMyNfts",
      "outputs": [
        {
          "components": [
            {
              "internalType": "address",
              "name": "nftContract",
              "type": "address"
            },
            {
              "internalType": "uint256",
              "name": "tokenId",
              "type": "uint256"
            },
            {
              "internalType": "address payable",
              "name": "seller",
              "type": "address"
            },
            {
              "internalType": "address payable",
              "name": "owner",
              "type": "address"
            },
            {
              "internalType": "uint256",
              "name": "price",
              "type": "uint256"
            },
            {
              "internalType": "uint256",
              "name": "supply",
              "type": "uint256"
            },
            {
              "internalType": "uint256",
              "name": "royalty",
              "type": "uint256"
            },
            {
              "internalType": "bool",
              "name": "listed",
              "type": "bool"
            }
          ],
          "internalType": "struct Marketplace.NFT[]",
          "name": "",
          "type": "tuple[]"
        }
      ],
      "stateMutability": "view",
      "type": "function",
      "constant": true
    },
    {
      "inputs": [],
      "name": "getMyListedNfts",
      "outputs": [
        {
          "components": [
            {
              "internalType": "address",
              "name": "nftContract",
              "type": "address"
            },
            {
              "internalType": "uint256",
              "name": "tokenId",
              "type": "uint256"
            },
            {
              "internalType": "address payable",
              "name": "seller",
              "type": "address"
            },
            {
              "internalType": "address payable",
              "name": "owner",
              "type": "address"
            },
            {
              "internalType": "uint256",
              "name": "price",
              "type": "uint256"
            },
            {
              "internalType": "uint256",
              "name": "supply",
              "type": "uint256"
            },
            {
              "internalType": "uint256",
              "name": "royalty",
              "type": "uint256"
            },
            {
              "internalType": "bool",
              "name": "listed",
              "type": "bool"
            }
          ],
          "internalType": "struct Marketplace.NFT[]",
          "name": "",
          "type": "tuple[]"
        }
      ],
      "stateMutability": "view",
      "type": "function",
      "constant": true
    }
  ],
  "bytecode": "0x6080604052655af3107a400060035534801561001a57600080fd5b50600160008190555033600460006101000a81548173ffffffffffffffffffffffffffffffffffffffff021916908373ffffffffffffffffffffffffffffffffffffffff160217905550611fa1806100736000396000f3fe60806040526004361061007b5760003560e01c80635bf575651161004e5780635bf575651461011d5780638d6cb3fb14610139578063b8fe6abe14610164578063ec70405f1461018f5761007b565b8063047b07bf146100805780631f4cc4db146100ab5780632b86ae38146100d65780634ddf4f8f14610101575b600080fd5b34801561008c57600080fd5b506100956101ab565b6040516100a29190611758565b60405180910390f35b3480156100b757600080fd5b506100c06104f3565b6040516100cd9190611758565b60405180910390f35b3480156100e257600080fd5b506100eb6108ad565b6040516100f89190611789565b60405180910390f35b61011b60048036038101906101169190611801565b6108b3565b005b61013760048036038101906101329190611841565b610bb3565b005b34801561014557600080fd5b5061014e610dfb565b60405161015b9190611758565b60405180910390f35b34801561017057600080fd5b50610179611078565b6040516101869190611789565b60405180910390f35b6101a960048036038101906101a491906118a8565b611082565b005b606060006101b96002611467565b90506000805b8281101561025e573373ffffffffffffffffffffffffffffffffffffffff16600560006001846101ef9190611952565b815260200190815260200160002060030160009054906101000a900473ffffffffffffffffffffffffffffffffffffffff1673ffffffffffffffffffffffffffffffffffffffff160361024b57818061024790611986565b9250505b808061025690611986565b9150506101bf565b5060008167ffffffffffffffff81111561027b5761027a6119ce565b5b6040519080825280602002602001820160405280156102b457816020015b6102a16114e7565b8152602001906001900390816102995790505b5090506000805b848110156104e8573373ffffffffffffffffffffffffffffffffffffffff16600560006001846102eb9190611952565b815260200190815260200160002060030160009054906101000a900473ffffffffffffffffffffffffffffffffffffffff1673ffffffffffffffffffffffffffffffffffffffff16036104d557600560006001836103499190611952565b8152602001908152602001600020604051806101000160405290816000820160009054906101000a900473ffffffffffffffffffffffffffffffffffffffff1673ffffffffffffffffffffffffffffffffffffffff1673ffffffffffffffffffffffffffffffffffffffff168152602001600182015481526020016002820160009054906101000a900473ffffffffffffffffffffffffffffffffffffffff1673ffffffffffffffffffffffffffffffffffffffff1673ffffffffffffffffffffffffffffffffffffffff1681526020016003820160009054906101000a900473ffffffffffffffffffffffffffffffffffffffff1673ffffffffffffffffffffffffffffffffffffffff1673ffffffffffffffffffffffffffffffffffffffff1681526020016004820154815260200160058201548152602001600682015481526020016007820160009054906101000a900460ff1615151515815250508383815181106104bb576104ba6119fd565b5b602002602001018190525081806104d190611986565b9250505b80806104e090611986565b9150506102bb565b508194505050505090565b606060006105016002611467565b90506000805b828110156105df573373ffffffffffffffffffffffffffffffffffffffff16600560006001846105379190611952565b815260200190815260200160002060020160009054906101000a900473ffffffffffffffffffffffffffffffffffffffff1673ffffffffffffffffffffffffffffffffffffffff161480156105b85750600560006001836105989190611952565b815260200190815260200160002060070160009054906101000a900460ff165b156105cc5781806105c890611986565b9250505b80806105d790611986565b915050610507565b5060008167ffffffffffffffff8111156105fc576105fb6119ce565b5b60405190808252806020026020018201604052801561063557816020015b6106226114e7565b81526020019060019003908161061a5790505b5090506000805b848110156108a2573373ffffffffffffffffffffffffffffffffffffffff166005600060018461066c9190611952565b815260200190815260200160002060020160009054906101000a900473ffffffffffffffffffffffffffffffffffffffff1673ffffffffffffffffffffffffffffffffffffffff161480156106ed5750600560006001836106cd9190611952565b815260200190815260200160002060070160009054906101000a900460ff165b1561088f57600560006001836107039190611952565b8152602001908152602001600020604051806101000160405290816000820160009054906101000a900473ffffffffffffffffffffffffffffffffffffffff1673ffffffffffffffffffffffffffffffffffffffff1673ffffffffffffffffffffffffffffffffffffffff168152602001600182015481526020016002820160009054906101000a900473ffffffffffffffffffffffffffffffffffffffff1673ffffffffffffffffffffffffffffffffffffffff1673ffffffffffffffffffffffffffffffffffffffff1681526020016003820160009054906101000a900473ffffffffffffffffffffffffffffffffffffffff1673ffffffffffffffffffffffffffffffffffffffff1673ffffffffffffffffffffffffffffffffffffffff1681526020016004820154815260200160058201548152602001600682015481526020016007820160009054906101000a900460ff161515151581525050838381518110610875576108746119fd565b5b6020026020010181905250818061088b90611986565b9250505b808061089a90611986565b91505061063c565b508194505050505090565b60035481565b6002600054036108f8576040517f08c379a00000000000000000000000000000000000000000000000000000000081526004016108ef90611a89565b60405180910390fd5b60026000819055506000600560008381526020019081526020016000209050806004015434101561095e576040517f08c379a000000000000000000000000000000000000000000000000000000000815260040161095590611b1b565b60405180910390fd5b60003390508160020160009054906101000a900473ffffffffffffffffffffffffffffffffffffffff1673ffffffffffffffffffffffffffffffffffffffff166108fc349081150290604051600060405180830381858888f193505050501580156109cd573d6000803e3d6000fd5b508373ffffffffffffffffffffffffffffffffffffffff166323b872dd308385600101546040518463ffffffff1660e01b8152600401610a0f93929190611ba9565b600060405180830381600087803b158015610a2957600080fd5b505af1158015610a3d573d6000803e3d6000fd5b50505050600460009054906101000a900473ffffffffffffffffffffffffffffffffffffffff1673ffffffffffffffffffffffffffffffffffffffff166108fc6003549081150290604051600060405180830381858888f19350505050158015610aab573d6000803e3d6000fd5b50808260030160006101000a81548173ffffffffffffffffffffffffffffffffffffffff021916908373ffffffffffffffffffffffffffffffffffffffff1602179055506001826005016000828254610b049190611be0565b9250508190555060008260070160006101000a81548160ff021916908315150217905550610b326001611475565b7ff3fcdb33272460c0025823d66ac5c566b7fa3a8ac81c4e655d1d9a06665cb58884848460020160009054906101000a900473ffffffffffffffffffffffffffffffffffffffff1684866004015487600501548860060154604051610b9d9796959493929190611c14565b60405180910390a1505060016000819055505050565b600260005403610bf8576040517f08c379a0000000000000000000000000000000000000000000000000000000008152600401610bef90611a89565b60405180910390fd5b60026000819055506003543414610c44576040517f08c379a0000000000000000000000000000000000000000000000000000000008152600401610c3b90611ccf565b60405180910390fd5b8373ffffffffffffffffffffffffffffffffffffffff166323b872dd3330866040518463ffffffff1660e01b8152600401610c8193929190611cef565b600060405180830381600087803b158015610c9b57600080fd5b505af1158015610caf573d6000803e3d6000fd5b505050506000600560008581526020019081526020016000209050338160020160006101000a81548173ffffffffffffffffffffffffffffffffffffffff021916908373ffffffffffffffffffffffffffffffffffffffff160217905550308160030160006101000a81548173ffffffffffffffffffffffffffffffffffffffff021916908373ffffffffffffffffffffffffffffffffffffffff16021790555060018160070160006101000a81548160ff0219169083151502179055508281600401819055506001816005016000828254610d8b9190611952565b92505081905550818160060181905550610da5600161148b565b7f380acab0ee1d651da065961944240ee750b6935ba0edefa78afb1c8e076762868585333087866005015488604051610de49796959493929190611d26565b60405180910390a150600160008190555050505050565b60606000610e096002611467565b90506000610e176001611467565b82610e229190611be0565b905060008167ffffffffffffffff811115610e4057610e3f6119ce565b5b604051908082528060200260200182016040528015610e7957816020015b610e666114e7565b815260200190600190039081610e5e5790505b5090506000805b8481101561106d5760056000600183610e999190611952565b815260200190815260200160002060070160009054906101000a900460ff161561105a5760056000600183610ece9190611952565b8152602001908152602001600020604051806101000160405290816000820160009054906101000a900473ffffffffffffffffffffffffffffffffffffffff1673ffffffffffffffffffffffffffffffffffffffff1673ffffffffffffffffffffffffffffffffffffffff168152602001600182015481526020016002820160009054906101000a900473ffffffffffffffffffffffffffffffffffffffff1673ffffffffffffffffffffffffffffffffffffffff1673ffffffffffffffffffffffffffffffffffffffff1681526020016003820160009054906101000a900473ffffffffffffffffffffffffffffffffffffffff1673ffffffffffffffffffffffffffffffffffffffff1673ffffffffffffffffffffffffffffffffffffffff1681526020016004820154815260200160058201548152602001600682015481526020016007820160009054906101000a900460ff1615151515815250508383815181106110405761103f6119fd565b5b6020026020010181905250818061105690611986565b9250505b808061106590611986565b915050610e80565b508194505050505090565b6000600354905090565b6002600054036110c7576040517f08c379a00000000000000000000000000000000000000000000000000000000081526004016110be90611a89565b60405180910390fd5b600260008190555060008311611112576040517f08c379a000000000000000000000000000000000000000000000000000000000815260040161110990611de1565b60405180910390fd5b60008211611155576040517f08c379a000000000000000000000000000000000000000000000000000000000815260040161114c90611e4d565b60405180910390fd5b60008110158015611167575060648111155b6111a6576040517f08c379a000000000000000000000000000000000000000000000000000000000815260040161119d90611edf565b60405180910390fd5b60035434146111ea576040517f08c379a00000000000000000000000000000000000000000000000000000000081526004016111e190611ccf565b60405180910390fd5b8473ffffffffffffffffffffffffffffffffffffffff166323b872dd3330876040518463ffffffff1660e01b815260040161122793929190611cef565b600060405180830381600087803b15801561124157600080fd5b505af1158015611255573d6000803e3d6000fd5b505050506112636002611475565b6040518061010001604052808673ffffffffffffffffffffffffffffffffffffffff1681526020018581526020013373ffffffffffffffffffffffffffffffffffffffff1681526020013073ffffffffffffffffffffffffffffffffffffffff168152602001848152602001838152602001828152602001600115158152506005600086815260200190815260200160002060008201518160000160006101000a81548173ffffffffffffffffffffffffffffffffffffffff021916908373ffffffffffffffffffffffffffffffffffffffff1602179055506020820151816001015560408201518160020160006101000a81548173ffffffffffffffffffffffffffffffffffffffff021916908373ffffffffffffffffffffffffffffffffffffffff16021790555060608201518160030160006101000a81548173ffffffffffffffffffffffffffffffffffffffff021916908373ffffffffffffffffffffffffffffffffffffffff1602179055506080820151816004015560a0820151816005015560c0820151816006015560e08201518160070160006101000a81548160ff0219169083151502179055509050507f380acab0ee1d651da065961944240ee750b6935ba0edefa78afb1c8e07676286858533308787876040516114509796959493929190611d26565b60405180910390a160016000819055505050505050565b600081600001549050919050565b6001816000016000828254019250508190555050565b600081600001549050600081116114d7576040517f08c379a00000000000000000000000000000000000000000000000000000000081526004016114ce90611f4b565b60405180910390fd5b6001810382600001819055505050565b604051806101000160405280600073ffffffffffffffffffffffffffffffffffffffff16815260200160008152602001600073ffffffffffffffffffffffffffffffffffffffff168152602001600073ffffffffffffffffffffffffffffffffffffffff1681526020016000815260200160008152602001600081526020016000151581525090565b600081519050919050565b600082825260208201905092915050565b6000819050602082019050919050565b600073ffffffffffffffffffffffffffffffffffffffff82169050919050565b60006115c78261159c565b9050919050565b6115d7816115bc565b82525050565b6000819050919050565b6115f0816115dd565b82525050565b60006116018261159c565b9050919050565b611611816115f6565b82525050565b60008115159050919050565b61162c81611617565b82525050565b6101008201600082015161164960008501826115ce565b50602082015161165c60208501826115e7565b50604082015161166f6040850182611608565b5060608201516116826060850182611608565b50608082015161169560808501826115e7565b5060a08201516116a860a08501826115e7565b5060c08201516116bb60c08501826115e7565b5060e08201516116ce60e0850182611623565b50505050565b60006116e08383611632565b6101008301905092915050565b6000602082019050919050565b600061170582611570565b61170f818561157b565b935061171a8361158c565b8060005b8381101561174b57815161173288826116d4565b975061173d836116ed565b92505060018101905061171e565b5085935050505092915050565b6000602082019050818103600083015261177281846116fa565b905092915050565b611783816115dd565b82525050565b600060208201905061179e600083018461177a565b92915050565b600080fd5b6117b2816115bc565b81146117bd57600080fd5b50565b6000813590506117cf816117a9565b92915050565b6117de816115dd565b81146117e957600080fd5b50565b6000813590506117fb816117d5565b92915050565b60008060408385031215611818576118176117a4565b5b6000611826858286016117c0565b9250506020611837858286016117ec565b9150509250929050565b6000806000806080858703121561185b5761185a6117a4565b5b6000611869878288016117c0565b945050602061187a878288016117ec565b935050604061188b878288016117ec565b925050606061189c878288016117ec565b91505092959194509250565b600080600080600060a086880312156118c4576118c36117a4565b5b60006118d2888289016117c0565b95505060206118e3888289016117ec565b94505060406118f4888289016117ec565b9350506060611905888289016117ec565b9250506080611916888289016117ec565b9150509295509295909350565b7f4e487b7100000000000000000000000000000000000000000000000000000000600052601160045260246000fd5b600061195d826115dd565b9150611968836115dd565b92508282019050808211156119805761197f611923565b5b92915050565b6000611991826115dd565b91507fffffffffffffffffffffffffffffffffffffffffffffffffffffffffffffffff82036119c3576119c2611923565b5b600182019050919050565b7f4e487b7100000000000000000000000000000000000000000000000000000000600052604160045260246000fd5b7f4e487b7100000000000000000000000000000000000000000000000000000000600052603260045260246000fd5b600082825260208201905092915050565b7f5265656e7472616e637947756172643a207265656e7472616e742063616c6c00600082015250565b6000611a73601f83611a2c565b9150611a7e82611a3d565b602082019050919050565b60006020820190508181036000830152611aa281611a66565b9050919050565b7f4e6f7420656e6f75676820657468657220746f20636f7665722061736b696e6760008201527f2070726963650000000000000000000000000000000000000000000000000000602082015250565b6000611b05602683611a2c565b9150611b1082611aa9565b604082019050919050565b60006020820190508181036000830152611b3481611af8565b9050919050565b611b44816115bc565b82525050565b6000819050919050565b6000611b6f611b6a611b658461159c565b611b4a565b61159c565b9050919050565b6000611b8182611b54565b9050919050565b6000611b9382611b76565b9050919050565b611ba381611b88565b82525050565b6000606082019050611bbe6000830186611b3b565b611bcb6020830185611b9a565b611bd8604083018461177a565b949350505050565b6000611beb826115dd565b9150611bf6836115dd565b9250828203905081811115611c0e57611c0d611923565b5b92915050565b600060e082019050611c29600083018a611b3b565b611c36602083018961177a565b611c436040830188611b9a565b611c506060830187611b9a565b611c5d608083018661177a565b611c6a60a083018561177a565b611c7760c083018461177a565b98975050505050505050565b7f4e6f7420656e6f75676820657468657220666f72206c697374696e6720666565600082015250565b6000611cb9602083611a2c565b9150611cc482611c83565b602082019050919050565b60006020820190508181036000830152611ce881611cac565b9050919050565b6000606082019050611d046000830186611b3b565b611d116020830185611b3b565b611d1e604083018461177a565b949350505050565b600060e082019050611d3b600083018a611b3b565b611d48602083018961177a565b611d556040830188611b3b565b611d626060830187611b3b565b611d6f608083018661177a565b611d7c60a083018561177a565b611d8960c083018461177a565b98975050505050505050565b7f5072696365206d757374206265206174206c6561737420312077656900000000600082015250565b6000611dcb601c83611a2c565b9150611dd682611d95565b602082019050919050565b60006020820190508181036000830152611dfa81611dbe565b9050919050565b7f537570706c79206d757374206265206174206c65617374203100000000000000600082015250565b6000611e37601983611a2c565b9150611e4282611e01565b602082019050919050565b60006020820190508181036000830152611e6681611e2a565b9050919050565b7f526f79616c7479206d757374206265206265747765656e203020616e6420313060008201527f3000000000000000000000000000000000000000000000000000000000000000602082015250565b6000611ec9602183611a2c565b9150611ed482611e6d565b604082019050919050565b60006020820190508181036000830152611ef881611ebc565b9050919050565b7f436f756e7465723a2064656372656d656e74206f766572666c6f770000000000600082015250565b6000611f35601b83611a2c565b9150611f4082611eff565b602082019050919050565b60006020820190508181036000830152611f6481611f28565b905091905056fea26469706673582212202564c038b235b6f178c5d89c35d61b2b13d5162611bd81f0a6c661379a0d104a64736f6c63430008110033",
  "immutableReferences": {},
  "source": "// SPDX-License-Identifier: MIT\r\npragma solidity ^0.8.13;\r\n\r\nimport \"@openzeppelin/contracts/utils/Counters.sol\";\r\nimport \"@openzeppelin/contracts/token/ERC721/ERC721.sol\";\r\nimport \"@openzeppelin/contracts/security/ReentrancyGuard.sol\";\r\n\r\ncontract Marketplace is ReentrancyGuard {\r\n    using Counters for Counters.Counter;\r\n    Counters.Counter private _nftsSold;\r\n    Counters.Counter private _nftCount;\r\n    uint256 public LISTING_FEE = 0.0001 ether;\r\n    address payable private _marketOwner;\r\n    mapping(uint256 => NFT) private _idToNFT;\r\n    struct NFT {\r\n        address nftContract;\r\n        uint256 tokenId;\r\n        address payable seller;\r\n        address payable owner;\r\n        uint256 price;\r\n        uint256 supply;\r\n        uint256 royalty;\r\n        bool listed;\r\n    }\r\n    event NFTListed(\r\n        address nftContract,\r\n        uint256 tokenId,\r\n        address seller,\r\n        address owner,\r\n        uint256 price,\r\n        uint256 supply,\r\n        uint256 royalty\r\n    );\r\n    event NFTSold(\r\n        address nftContract,\r\n        uint256 tokenId,\r\n        address seller,\r\n        address owner,\r\n        uint256 price,\r\n        uint256 supply,\r\n        uint256 royalty\r\n    );\r\n\r\n    constructor() {\r\n        _marketOwner = payable(msg.sender);\r\n    }\r\n\r\n    // List the NFT on the marketplace\r\n    function listNft(\r\n        address _nftContract,\r\n        uint256 _tokenId,\r\n        uint256 _price,\r\n        uint256 _supply,\r\n        uint256 _royalty\r\n    ) public payable nonReentrant {\r\n        require(_price > 0, \"Price must be at least 1 wei\");\r\n        require(_supply > 0, \"Supply must be at least 1\");\r\n        require(\r\n            _royalty >= 0 && _royalty <= 100,\r\n            \"Royalty must be between 0 and 100\"\r\n        );\r\n        require(msg.value == LISTING_FEE, \"Not enough ether for listing fee\");\r\n\r\n        IERC721(_nftContract).transferFrom(msg.sender, address(this), _tokenId);\r\n\r\n        _nftCount.increment();\r\n\r\n        _idToNFT[_tokenId] = NFT(\r\n            _nftContract,\r\n            _tokenId,\r\n            payable(msg.sender),\r\n            payable(address(this)),\r\n            _price,\r\n            _supply,\r\n            _royalty,\r\n            true\r\n        );\r\n\r\n        emit NFTListed(\r\n            _nftContract,\r\n            _tokenId,\r\n            msg.sender,\r\n            address(this),\r\n            _price,\r\n            _supply,\r\n            _royalty\r\n        );\r\n    }\r\n\r\n    // Resell an NFT purchased from the marketplace\r\n    function resellNft(\r\n        address _nftContract,\r\n        uint256 _tokenId,\r\n        uint256 _price,\r\n        uint256 _royalty\r\n    ) public payable nonReentrant {\r\n        require(msg.value == LISTING_FEE, \"Not enough ether for listing fee\");\r\n\r\n        IERC721(_nftContract).transferFrom(msg.sender, address(this), _tokenId);\r\n\r\n        NFT storage nft = _idToNFT[_tokenId];\r\n        nft.seller = payable(msg.sender);\r\n        nft.owner = payable(address(this));\r\n        nft.listed = true;\r\n        nft.price = _price;\r\n        nft.supply += 1;\r\n        nft.royalty = _royalty;\r\n\r\n        _nftsSold.decrement();\r\n        emit NFTListed(\r\n            _nftContract,\r\n            _tokenId,\r\n            msg.sender,\r\n            address(this),\r\n            _price,\r\n            nft.supply,\r\n            _royalty\r\n        );\r\n    }\r\n\r\n    // Buy an NFT that pays the original seller the royalty\r\n    function buyNft(address _nftContract, uint256 _tokenId)\r\n        public\r\n        payable\r\n        nonReentrant\r\n    {\r\n        NFT storage nft = _idToNFT[_tokenId];\r\n        require(\r\n            msg.value >= nft.price,\r\n            \"Not enough ether to cover asking price\"\r\n        );\r\n\r\n        address payable buyer = payable(msg.sender);\r\n        payable(nft.seller).transfer(msg.value);\r\n        IERC721(_nftContract).transferFrom(address(this), buyer, nft.tokenId);\r\n        _marketOwner.transfer(LISTING_FEE);\r\n        nft.owner = buyer;\r\n        nft.supply -= 1;\r\n        nft.listed = false;\r\n\r\n        _nftsSold.increment();\r\n        emit NFTSold(\r\n            _nftContract,\r\n            _tokenId,\r\n            // allow the seller to get royalties\r\n            nft.seller,\r\n            buyer,\r\n            nft.price,\r\n            nft.supply,\r\n            nft.royalty\r\n        );\r\n    }\r\n\r\n    function getListingFee() public view returns (uint256) {\r\n        return LISTING_FEE;\r\n    }\r\n\r\n    function getListedNfts() public view returns (NFT[] memory) {\r\n        uint256 nftCount = _nftCount.current();\r\n        uint256 unsoldNftsCount = nftCount - _nftsSold.current();\r\n\r\n        NFT[] memory nfts = new NFT[](unsoldNftsCount);\r\n        uint256 nftsIndex = 0;\r\n        for (uint256 i = 0; i < nftCount; i++) {\r\n            if (_idToNFT[i + 1].listed) {\r\n                nfts[nftsIndex] = _idToNFT[i + 1];\r\n                nftsIndex++;\r\n            }\r\n        }\r\n        return nfts;\r\n    }\r\n\r\n    function getMyNfts() public view returns (NFT[] memory) {\r\n        uint256 nftCount = _nftCount.current();\r\n        uint256 myNftCount = 0;\r\n        for (uint256 i = 0; i < nftCount; i++) {\r\n            if (_idToNFT[i + 1].owner == msg.sender) {\r\n                myNftCount++;\r\n            }\r\n        }\r\n\r\n        NFT[] memory nfts = new NFT[](myNftCount);\r\n        uint256 nftsIndex = 0;\r\n        for (uint256 i = 0; i < nftCount; i++) {\r\n            if (_idToNFT[i + 1].owner == msg.sender) {\r\n                nfts[nftsIndex] = _idToNFT[i + 1];\r\n                nftsIndex++;\r\n            }\r\n        }\r\n        return nfts;\r\n    }\r\n\r\n    function getMyListedNfts() public view returns (NFT[] memory) {\r\n        uint256 nftCount = _nftCount.current();\r\n        uint256 myListedNftCount = 0;\r\n        for (uint256 i = 0; i < nftCount; i++) {\r\n            if (\r\n                _idToNFT[i + 1].seller == msg.sender && _idToNFT[i + 1].listed\r\n            ) {\r\n                myListedNftCount++;\r\n            }\r\n        }\r\n\r\n        NFT[] memory nfts = new NFT[](myListedNftCount);\r\n        uint256 nftsIndex = 0;\r\n        for (uint256 i = 0; i < nftCount; i++) {\r\n            if (\r\n                _idToNFT[i + 1].seller == msg.sender && _idToNFT[i + 1].listed\r\n            ) {\r\n                nfts[nftsIndex] = _idToNFT[i + 1];\r\n                nftsIndex++;\r\n            }\r\n        }\r\n        return nfts;\r\n    }\r\n}\r\n",
  "sourcePath": "C:\\Users\\chris\\ETH-SanFrancisco\\destemr\\backend\\contracts\\Marketplace.sol",
  "compiler": {
    "name": "solc",
    "version": "0.8.17+commit.8df45f5f.Emscripten.clang"
  },
  "schemaVersion": "3.4.10",
  "updatedAt": "2022-10-19T18:12:27.153Z",
  "networkType": "ethereum",
  "devdoc": {
    "kind": "dev",
    "methods": {},
    "version": 1
  },
  "userdoc": {
    "kind": "user",
    "methods": {},
    "version": 1
  }
}